{
  "_format": "hh-sol-artifact-1",
  "contractName": "NFTMarketResell",
  "sourceName": "contracts/contract1.sol",
  "abi": [
    {
      "inputs": [
        {
          "internalType": "contract ERC721Enumerable",
          "name": "_nft",
          "type": "address"
        }
      ],
      "stateMutability": "nonpayable",
      "type": "constructor"
    },
    {
      "anonymous": false,
      "inputs": [
        {
          "indexed": true,
          "internalType": "uint256",
          "name": "tokenId",
          "type": "uint256"
        },
        {
          "indexed": false,
          "internalType": "address",
          "name": "seller",
          "type": "address"
        },
        {
          "indexed": false,
          "internalType": "address",
          "name": "holder",
          "type": "address"
        },
        {
          "indexed": false,
          "internalType": "uint256",
          "name": "price",
          "type": "uint256"
        },
        {
          "indexed": false,
          "internalType": "bool",
          "name": "soldaz",
          "type": "bool"
        }
      ],
      "name": "NFTListCreated",
      "type": "event"
    },
    {
      "anonymous": false,
      "inputs": [
        {
          "indexed": true,
          "internalType": "address",
          "name": "previousOwner",
          "type": "address"
        },
        {
          "indexed": true,
          "internalType": "address",
          "name": "newOwner",
          "type": "address"
        }
      ],
      "name": "OwnershipTransferred",
      "type": "event"
    },
    {
      "inputs": [
        {
          "internalType": "uint256",
          "name": "tokenId",
          "type": "uint256"
        }
      ],
      "name": "buyNft",
      "outputs": [],
      "stateMutability": "payable",
      "type": "function"
    },
    {
      "inputs": [
        {
          "internalType": "uint256",
          "name": "tokenId",
          "type": "uint256"
        }
      ],
      "name": "cancelSale",
      "outputs": [],
      "stateMutability": "nonpayable",
      "type": "function"
    },
    {
      "inputs": [],
      "name": "getListingFee",
      "outputs": [
        {
          "internalType": "uint256",
          "name": "",
          "type": "uint256"
        }
      ],
      "stateMutability": "view",
      "type": "function"
    },
    {
      "inputs": [
        {
          "internalType": "uint256",
          "name": "tokenId",
          "type": "uint256"
        }
      ],
      "name": "getPrice",
      "outputs": [
        {
          "internalType": "uint256",
          "name": "",
          "type": "uint256"
        }
      ],
      "stateMutability": "view",
      "type": "function"
    },
    {
      "inputs": [
        {
          "internalType": "uint256",
          "name": "tokenId",
          "type": "uint256"
        },
        {
          "internalType": "uint256",
          "name": "price",
          "type": "uint256"
        }
      ],
      "name": "listSale",
      "outputs": [],
      "stateMutability": "payable",
      "type": "function"
    },
    {
      "inputs": [],
      "name": "nftListings",
      "outputs": [
        {
          "components": [
            {
              "internalType": "uint256",
              "name": "tokenId",
              "type": "uint256"
            },
            {
              "internalType": "address payable",
              "name": "seller",
              "type": "address"
            },
            {
              "internalType": "address payable",
              "name": "holder",
              "type": "address"
            },
            {
              "internalType": "uint256",
              "name": "price",
              "type": "uint256"
            },
            {
              "internalType": "bool",
              "name": "sold",
              "type": "bool"
            }
          ],
          "internalType": "struct NFTMarketResell.List[]",
          "name": "",
          "type": "tuple[]"
        }
      ],
      "stateMutability": "view",
      "type": "function"
    },
    {
      "inputs": [
        {
          "internalType": "address",
          "name": "",
          "type": "address"
        },
        {
          "internalType": "address",
          "name": "from",
          "type": "address"
        },
        {
          "internalType": "uint256",
          "name": "",
          "type": "uint256"
        },
        {
          "internalType": "bytes",
          "name": "",
          "type": "bytes"
        }
      ],
      "name": "onERC721Received",
      "outputs": [
        {
          "internalType": "bytes4",
          "name": "",
          "type": "bytes4"
        }
      ],
      "stateMutability": "pure",
      "type": "function"
    },
    {
      "inputs": [],
      "name": "owner",
      "outputs": [
        {
          "internalType": "address",
          "name": "",
          "type": "address"
        }
      ],
      "stateMutability": "view",
      "type": "function"
    },
    {
      "inputs": [],
      "name": "renounceOwnership",
      "outputs": [],
      "stateMutability": "nonpayable",
      "type": "function"
    },
    {
      "inputs": [
        {
          "internalType": "address",
          "name": "newOwner",
          "type": "address"
        }
      ],
      "name": "transferOwnership",
      "outputs": [],
      "stateMutability": "nonpayable",
      "type": "function"
    },
    {
      "inputs": [
        {
          "internalType": "uint256",
          "name": "",
          "type": "uint256"
        }
      ],
      "name": "vaultItems",
      "outputs": [
        {
          "internalType": "uint256",
          "name": "tokenId",
          "type": "uint256"
        },
        {
          "internalType": "address payable",
          "name": "seller",
          "type": "address"
        },
        {
          "internalType": "address payable",
          "name": "holder",
          "type": "address"
        },
        {
          "internalType": "uint256",
          "name": "price",
          "type": "uint256"
        },
        {
          "internalType": "bool",
          "name": "sold",
          "type": "bool"
        }
      ],
      "stateMutability": "view",
      "type": "function"
    },
    {
      "inputs": [],
      "name": "withdraw",
      "outputs": [],
      "stateMutability": "payable",
      "type": "function"
    }
  ],
  "bytecode": "0x60806040526608e1bc9bf040006003553480156200001c57600080fd5b5060405162001f7f38038062001f7f8339818101604052810190620000429190620001d8565b60016000819055506200006a6200005e620000f360201b60201c565b620000fb60201b60201c565b33600260006101000a81548173ffffffffffffffffffffffffffffffffffffffff021916908373ffffffffffffffffffffffffffffffffffffffff16021790555080600560006101000a81548173ffffffffffffffffffffffffffffffffffffffff021916908373ffffffffffffffffffffffffffffffffffffffff1602179055505062000266565b600033905090565b6000600160009054906101000a900473ffffffffffffffffffffffffffffffffffffffff16905081600160006101000a81548173ffffffffffffffffffffffffffffffffffffffff021916908373ffffffffffffffffffffffffffffffffffffffff1602179055508173ffffffffffffffffffffffffffffffffffffffff168173ffffffffffffffffffffffffffffffffffffffff167f8be0079c531659141344cd1fd0a4f28419497f9722a3daafe3b4186f6b6457e060405160405180910390a35050565b600081519050620001d2816200024c565b92915050565b600060208284031215620001eb57600080fd5b6000620001fb84828501620001c1565b91505092915050565b600062000211826200022c565b9050919050565b6000620002258262000204565b9050919050565b600073ffffffffffffffffffffffffffffffffffffffff82169050919050565b620002578162000218565b81146200026357600080fd5b50565b611d0980620002766000396000f3fe6080604052600436106100a75760003560e01c8063715018a611610064578063715018a6146101975780638da5cb5b146101ae578063b8fe6abe146101d9578063bd94b00514610204578063e75722301461022d578063f2fde38b1461026a576100a7565b8063150b7a02146100ac5780631dfb091b146100e9578063243adbdd1461012a5780633ccfd60b146101465780635993b2fc1461015057806365699c9d1461017b575b600080fd5b3480156100b857600080fd5b506100d360048036038101906100ce91906112fd565b610293565b6040516100e09190611755565b60405180910390f35b3480156100f557600080fd5b50610110600480360381019061010b919061137d565b610316565b6040516101219594939291906118ab565b60405180910390f35b610144600480360381019061013f919061137d565b610399565b005b61014e6105cf565b005b34801561015c57600080fd5b50610165610617565b6040516101729190611733565b60405180910390f35b610195600480360381019061019091906113cf565b61093f565b005b3480156101a357600080fd5b506101ac610d49565b005b3480156101ba57600080fd5b506101c3610d5d565b6040516101d0919061169c565b60405180910390f35b3480156101e557600080fd5b506101ee610d87565b6040516101fb9190611890565b60405180910390f35b34801561021057600080fd5b5061022b6004803603810190610226919061137d565b610d91565b005b34801561023957600080fd5b50610254600480360381019061024f919061137d565b610f61565b6040516102619190611890565b60405180910390f35b34801561027657600080fd5b50610291600480360381019061028c91906112ab565b610f86565b005b60008073ffffffffffffffffffffffffffffffffffffffff168573ffffffffffffffffffffffffffffffffffffffff1614610303576040517f08c379a00000000000000000000000000000000000000000000000000000000081526004016102fa90611850565b60405180910390fd5b63150b7a0260e01b905095945050505050565b60046020528060005260406000206000915090508060000154908060010160009054906101000a900473ffffffffffffffffffffffffffffffffffffffff16908060020160009054906101000a900473ffffffffffffffffffffffffffffffffffffffff16908060030154908060040160009054906101000a900460ff16905085565b6103a161100a565b6000600460008381526020019081526020016000206003015490508034146103fe576040517f08c379a00000000000000000000000000000000000000000000000000000000081526004016103f590611790565b60405180910390fd5b6004600083815260200190815260200160002060010160009054906101000a900473ffffffffffffffffffffffffffffffffffffffff1673ffffffffffffffffffffffffffffffffffffffff166108fc349081150290604051600060405180830381858888f1935050505015801561047a573d6000803e3d6000fd5b50600560009054906101000a900473ffffffffffffffffffffffffffffffffffffffff1673ffffffffffffffffffffffffffffffffffffffff166323b872dd3033856040518463ffffffff1660e01b81526004016104da939291906116b7565b600060405180830381600087803b1580156104f457600080fd5b505af1158015610508573d6000803e3d6000fd5b5050505060016004600084815260200190815260200160002060040160006101000a81548160ff021916908315150217905550600460008381526020019081526020016000206000808201600090556001820160006101000a81549073ffffffffffffffffffffffffffffffffffffffff02191690556002820160006101000a81549073ffffffffffffffffffffffffffffffffffffffff021916905560038201600090556004820160006101000a81549060ff02191690555050506105cc61105a565b50565b6105d7611064565b3373ffffffffffffffffffffffffffffffffffffffff166108fc479081150290604051600060405180830381858888f1935050505061061557600080fd5b565b60606000600560009054906101000a900473ffffffffffffffffffffffffffffffffffffffff1673ffffffffffffffffffffffffffffffffffffffff166318160ddd6040518163ffffffff1660e01b815260040160206040518083038186803b15801561068357600080fd5b505afa158015610697573d6000803e3d6000fd5b505050506040513d601f19601f820116820180604052508101906106bb91906113a6565b90506000808267ffffffffffffffff811115610700577f4e487b7100000000000000000000000000000000000000000000000000000000600052604160045260246000fd5b60405190808252806020026020018201604052801561073957816020015b6107266111b0565b81526020019060019003908161071e5790505b50905060005b83811015610935573073ffffffffffffffffffffffffffffffffffffffff166004600060018461076f9190611948565b815260200190815260200160002060020160009054906101000a900473ffffffffffffffffffffffffffffffffffffffff1673ffffffffffffffffffffffffffffffffffffffff1614156109225760006001826107cc9190611948565b90506000600460008381526020019081526020016000209050806040518060a0016040529081600082015481526020016001820160009054906101000a900473ffffffffffffffffffffffffffffffffffffffff1673ffffffffffffffffffffffffffffffffffffffff1673ffffffffffffffffffffffffffffffffffffffff1681526020016002820160009054906101000a900473ffffffffffffffffffffffffffffffffffffffff1673ffffffffffffffffffffffffffffffffffffffff1673ffffffffffffffffffffffffffffffffffffffff168152602001600382015481526020016004820160009054906101000a900460ff161515151581525050848681518110610905577f4e487b7100000000000000000000000000000000000000000000000000000000600052603260045260246000fd5b602002602001018190525060018561091d9190611948565b945050505b808061092d90611a24565b91505061073f565b5080935050505090565b61094761100a565b3373ffffffffffffffffffffffffffffffffffffffff16600560009054906101000a900473ffffffffffffffffffffffffffffffffffffffff1673ffffffffffffffffffffffffffffffffffffffff16636352211e846040518263ffffffff1660e01b81526004016109b99190611890565b60206040518083038186803b1580156109d157600080fd5b505afa1580156109e5573d6000803e3d6000fd5b505050506040513d601f19601f82011682018060405250810190610a0991906112d4565b73ffffffffffffffffffffffffffffffffffffffff1614610a5f576040517f08c379a0000000000000000000000000000000000000000000000000000000008152600401610a5690611810565b60405180910390fd5b6000600460008481526020019081526020016000206000015414610ab8576040517f08c379a0000000000000000000000000000000000000000000000000000000008152600401610aaf906117d0565b60405180910390fd5b60008111610afb576040517f08c379a0000000000000000000000000000000000000000000000000000000008152600401610af2906117b0565b60405180910390fd5b6003543414610b3f576040517f08c379a0000000000000000000000000000000000000000000000000000000008152600401610b3690611830565b60405180910390fd5b6040518060a001604052808381526020013373ffffffffffffffffffffffffffffffffffffffff1681526020013073ffffffffffffffffffffffffffffffffffffffff16815260200182815260200160001515815250600460008481526020019081526020016000206000820151816000015560208201518160010160006101000a81548173ffffffffffffffffffffffffffffffffffffffff021916908373ffffffffffffffffffffffffffffffffffffffff16021790555060408201518160020160006101000a81548173ffffffffffffffffffffffffffffffffffffffff021916908373ffffffffffffffffffffffffffffffffffffffff1602179055506060820151816003015560808201518160040160006101000a81548160ff021916908315150217905550905050600560009054906101000a900473ffffffffffffffffffffffffffffffffffffffff1673ffffffffffffffffffffffffffffffffffffffff166323b872dd3330856040518463ffffffff1660e01b8152600401610ccc939291906116b7565b600060405180830381600087803b158015610ce657600080fd5b505af1158015610cfa573d6000803e3d6000fd5b50505050817fb4d56b90073d0ff00f241bc47cb6a2575250588918394e7edd6b10bffb92c7e23330846000604051610d3594939291906116ee565b60405180910390a2610d4561105a565b5050565b610d51611064565b610d5b60006110e2565b565b6000600160009054906101000a900473ffffffffffffffffffffffffffffffffffffffff16905090565b6000600354905090565b610d9961100a565b3373ffffffffffffffffffffffffffffffffffffffff166004600083815260200190815260200160002060010160009054906101000a900473ffffffffffffffffffffffffffffffffffffffff1673ffffffffffffffffffffffffffffffffffffffff1614610e3d576040517f08c379a0000000000000000000000000000000000000000000000000000000008152600401610e3490611810565b60405180910390fd5b600560009054906101000a900473ffffffffffffffffffffffffffffffffffffffff1673ffffffffffffffffffffffffffffffffffffffff166323b872dd3033846040518463ffffffff1660e01b8152600401610e9c939291906116b7565b600060405180830381600087803b158015610eb657600080fd5b505af1158015610eca573d6000803e3d6000fd5b50505050600460008281526020019081526020016000206000808201600090556001820160006101000a81549073ffffffffffffffffffffffffffffffffffffffff02191690556002820160006101000a81549073ffffffffffffffffffffffffffffffffffffffff021916905560038201600090556004820160006101000a81549060ff02191690555050610f5e61105a565b50565b6000806004600084815260200190815260200160002060030154905080915050919050565b610f8e611064565b600073ffffffffffffffffffffffffffffffffffffffff168173ffffffffffffffffffffffffffffffffffffffff161415610ffe576040517f08c379a0000000000000000000000000000000000000000000000000000000008152600401610ff590611770565b60405180910390fd5b611007816110e2565b50565b60026000541415611050576040517f08c379a000000000000000000000000000000000000000000000000000000000815260040161104790611870565b60405180910390fd5b6002600081905550565b6001600081905550565b61106c6111a8565b73ffffffffffffffffffffffffffffffffffffffff1661108a610d5d565b73ffffffffffffffffffffffffffffffffffffffff16146110e0576040517f08c379a00000000000000000000000000000000000000000000000000000000081526004016110d7906117f0565b60405180910390fd5b565b6000600160009054906101000a900473ffffffffffffffffffffffffffffffffffffffff16905081600160006101000a81548173ffffffffffffffffffffffffffffffffffffffff021916908373ffffffffffffffffffffffffffffffffffffffff1602179055508173ffffffffffffffffffffffffffffffffffffffff168173ffffffffffffffffffffffffffffffffffffffff167f8be0079c531659141344cd1fd0a4f28419497f9722a3daafe3b4186f6b6457e060405160405180910390a35050565b600033905090565b6040518060a0016040528060008152602001600073ffffffffffffffffffffffffffffffffffffffff168152602001600073ffffffffffffffffffffffffffffffffffffffff168152602001600081526020016000151581525090565b60008135905061121c81611ca5565b92915050565b60008151905061123181611ca5565b92915050565b60008083601f84011261124957600080fd5b8235905067ffffffffffffffff81111561126257600080fd5b60208301915083600182028301111561127a57600080fd5b9250929050565b60008135905061129081611cbc565b92915050565b6000815190506112a581611cbc565b92915050565b6000602082840312156112bd57600080fd5b60006112cb8482850161120d565b91505092915050565b6000602082840312156112e657600080fd5b60006112f484828501611222565b91505092915050565b60008060008060006080868803121561131557600080fd5b60006113238882890161120d565b95505060206113348882890161120d565b945050604061134588828901611281565b935050606086013567ffffffffffffffff81111561136257600080fd5b61136e88828901611237565b92509250509295509295909350565b60006020828403121561138f57600080fd5b600061139d84828501611281565b91505092915050565b6000602082840312156113b857600080fd5b60006113c684828501611296565b91505092915050565b600080604083850312156113e257600080fd5b60006113f085828601611281565b925050602061140185828601611281565b9150509250929050565b60006114178383611616565b60a08301905092915050565b61142c816119b0565b82525050565b61143b816119b0565b82525050565b61144a8161199e565b82525050565b600061145b8261190e565b6114658185611926565b9350611470836118fe565b8060005b838110156114a1578151611488888261140b565b975061149383611919565b925050600181019050611474565b5085935050505092915050565b6114b7816119c2565b82525050565b6114c6816119c2565b82525050565b6114d5816119ce565b82525050565b60006114e8602683611937565b91506114f382611a9c565b604082019050919050565b600061150b602d83611937565b915061151682611aeb565b604082019050919050565b600061152e601c83611937565b915061153982611b3a565b602082019050919050565b6000611551601283611937565b915061155c82611b63565b602082019050919050565b6000611574602083611937565b915061157f82611b8c565b602082019050919050565b6000611597600d83611937565b91506115a282611bb5565b602082019050919050565b60006115ba603083611937565b91506115c582611bde565b604082019050919050565b60006115dd602283611937565b91506115e882611c2d565b604082019050919050565b6000611600601f83611937565b915061160b82611c7c565b602082019050919050565b60a08201600082015161162c600085018261167e565b50602082015161163f6020850182611423565b5060408201516116526040850182611423565b506060820151611665606085018261167e565b50608082015161167860808501826114ae565b50505050565b61168781611a1a565b82525050565b61169681611a1a565b82525050565b60006020820190506116b16000830184611441565b92915050565b60006060820190506116cc6000830186611441565b6116d96020830185611441565b6116e6604083018461168d565b949350505050565b60006080820190506117036000830187611441565b6117106020830186611441565b61171d604083018561168d565b61172a60608301846114bd565b95945050505050565b6000602082019050818103600083015261174d8184611450565b905092915050565b600060208201905061176a60008301846114cc565b92915050565b60006020820190508181036000830152611789816114db565b9050919050565b600060208201905081810360008301526117a9816114fe565b9050919050565b600060208201905081810360008301526117c981611521565b9050919050565b600060208201905081810360008301526117e981611544565b9050919050565b6000602082019050818103600083015261180981611567565b9050919050565b600060208201905081810360008301526118298161158a565b9050919050565b60006020820190508181036000830152611849816115ad565b9050919050565b60006020820190508181036000830152611869816115d0565b9050919050565b60006020820190508181036000830152611889816115f3565b9050919050565b60006020820190506118a5600083018461168d565b92915050565b600060a0820190506118c0600083018861168d565b6118cd6020830187611432565b6118da6040830186611432565b6118e7606083018561168d565b6118f460808301846114bd565b9695505050505050565b6000819050602082019050919050565b600081519050919050565b6000602082019050919050565b600082825260208201905092915050565b600082825260208201905092915050565b600061195382611a1a565b915061195e83611a1a565b9250827fffffffffffffffffffffffffffffffffffffffffffffffffffffffffffffffff0382111561199357611992611a6d565b5b828201905092915050565b60006119a9826119fa565b9050919050565b60006119bb826119fa565b9050919050565b60008115159050919050565b60007fffffffff0000000000000000000000000000000000000000000000000000000082169050919050565b600073ffffffffffffffffffffffffffffffffffffffff82169050919050565b6000819050919050565b6000611a2f82611a1a565b91507fffffffffffffffffffffffffffffffffffffffffffffffffffffffffffffffff821415611a6257611a61611a6d565b5b600182019050919050565b7f4e487b7100000000000000000000000000000000000000000000000000000000600052601160045260246000fd5b7f4f776e61626c653a206e6577206f776e657220697320746865207a65726f206160008201527f6464726573730000000000000000000000000000000000000000000000000000602082015250565b7f5472616e7366657220546f74616c20416d6f756e7420746f20636f6d706c657460008201527f65207472616e73616374696f6e00000000000000000000000000000000000000602082015250565b7f416d6f756e74206d75737420626520686967686572207468616e203000000000600082015250565b7f4e465420616c7265616479206c69737465640000000000000000000000000000600082015250565b7f4f776e61626c653a2063616c6c6572206973206e6f7420746865206f776e6572600082015250565b7f4e4654206e6f7420796f75727300000000000000000000000000000000000000600082015250565b7f506c65617365207472616e7366657220302e303032352063727970746f20746f60008201527f20706179206c697374696e672066656500000000000000000000000000000000602082015250565b7f43616e6e6f742073656e64206e66747320746f205661756c742064697265637460008201527f6c79000000000000000000000000000000000000000000000000000000000000602082015250565b7f5265656e7472616e637947756172643a207265656e7472616e742063616c6c00600082015250565b611cae8161199e565b8114611cb957600080fd5b50565b611cc581611a1a565b8114611cd057600080fd5b5056fea26469706673582212204479379fd87b816d61ca30d353870eceb92b93c6e855ee38ae1ae0c1e1c6603a64736f6c63430008040033",
  "linkReferences": {},
  "deployedLinkReferences": {}
}